{
  "transactions": [
    {
      "hash": "0x7a5d771a50d5f7dfdb06751c63ea665275656b213e21664608f71d5c61518f10",
      "transactionType": "CALL",
      "contractName": null,
      "contractAddress": "0x11491ac2583fe5a4d8e909fff7ddea8deb5c611e",
      "function": "mint(address,uint256,string)",
      "arguments": [
        "0x99EfB6689ccb45A5DCd974C2e620001A4805Ca03",
        "10",
        "https://..."
      ],
      "transaction": {
        "from": "0xf9c289f1c0341fb336224958a885163f5017bc16",
        "to": "0x11491ac2583fe5a4d8e909fff7ddea8deb5c611e",
        "gas": "0x116fc",
        "value": "0x0",
        "input": "0xd3fc986400000000000000000000000099efb6689ccb45a5dcd974c2e620001a4805ca03000000000000000000000000000000000000000000000000000000000000000a0000000000000000000000000000000000000000000000000000000000000060000000000000000000000000000000000000000000000000000000000000000b68747470733a2f2f2e2e2e000000000000000000000000000000000000000000",
        "nonce": "0xb",
        "chainId": "0x89"
      },
      "additionalContracts": [],
      "isFixedGasLimit": false
    }
  ],
  "receipts": [
    {
      "status": "0x1",
      "cumulativeGasUsed": "0x17ef465",
      "logs": [
        {
          "address": "0x11491ac2583fe5a4d8e909fff7ddea8deb5c611e",
          "topics": [
            "0xddf252ad1be2c89b69c2b068fc378daa952ba7f163c4a11628f55a4df523b3ef",
            "0x0000000000000000000000000000000000000000000000000000000000000000",
            "0x00000000000000000000000099efb6689ccb45a5dcd974c2e620001a4805ca03"
          ],
          "data": "0x0000000000000000000000000000000000000000000000008ac7230489e80000",
          "blockHash": "0x064fe6fc92ae6a5c2630c5db7471b04e5ccedd8bf1b4b01a776d7749adebcbe4",
          "blockNumber": "0x41485c7",
          "transactionHash": "0x7a5d771a50d5f7dfdb06751c63ea665275656b213e21664608f71d5c61518f10",
          "transactionIndex": "0x95",
          "logIndex": "0x6ee",
          "removed": false
        },
        {
          "address": "0x11491ac2583fe5a4d8e909fff7ddea8deb5c611e",
          "topics": [
            "0x6e064d459e61c74ed5a1d6753e3eac104ef3acf2ada2c5d761da57315107abff",
            "0x00000000000000000000000099efb6689ccb45a5dcd974c2e620001a4805ca03"
          ],
          "data": "0x000000000000000000000000000000000000000000000000000000000000000a0000000000000000000000000000000000000000000000000000000000000040000000000000000000000000000000000000000000000000000000000000000b68747470733a2f2f2e2e2e000000000000000000000000000000000000000000",
          "blockHash": "0x064fe6fc92ae6a5c2630c5db7471b04e5ccedd8bf1b4b01a776d7749adebcbe4",
          "blockNumber": "0x41485c7",
          "transactionHash": "0x7a5d771a50d5f7dfdb06751c63ea665275656b213e21664608f71d5c61518f10",
          "transactionIndex": "0x95",
          "logIndex": "0x6ef",
          "removed": false
        },
        {
          "address": "0x0000000000000000000000000000000000001010",
          "topics": [
            "0x4dfe1bbbcf077ddc3e01291eea2d5c70c2b422b415d95645b9adcfd678cb1d63",
            "0x0000000000000000000000000000000000000000000000000000000000001010",
            "0x000000000000000000000000f9c289f1c0341fb336224958a885163f5017bc16",
            "0x000000000000000000000000a8b52f02108aa5f4b675bdcc973760022d7c6020"
          ],
          "data": "0x00000000000000000000000000000000000000000000000000052d831110fc8c000000000000000000000000000000000000000000000001a23164161959d05b0000000000000000000000000000000000000000000000a9cabc44426ef1ea90000000000000000000000000000000000000000000000001a22c36930848d3cf0000000000000000000000000000000000000000000000a9cac171c58002e71c",
          "blockHash": "0x064fe6fc92ae6a5c2630c5db7471b04e5ccedd8bf1b4b01a776d7749adebcbe4",
          "blockNumber": "0x41485c7",
          "transactionHash": "0x7a5d771a50d5f7dfdb06751c63ea665275656b213e21664608f71d5c61518f10",
          "transactionIndex": "0x95",
          "logIndex": "0x6f0",
          "removed": false
        }
      ],
      "logsBloom": "0x00000000000000000000000000000000020000000000000000000000000000000000000000000000000000000002000000008000000000000000010000000000000000000000000000000008000000800000100000000000000100000000000000000000020000000000000000000800000000000000000080000010000000000000000000000000400000000000000000000000000000040000000008000800200000000000004000000000000000000000002000000000000000000000004000000002000000000001000000010000000000000000000000100000000020410000000000000000000000000100000000000000000000000000000000300000",
      "type": "0x2",
      "transactionHash": "0x7a5d771a50d5f7dfdb06751c63ea665275656b213e21664608f71d5c61518f10",
      "transactionIndex": "0x95",
      "blockHash": "0x064fe6fc92ae6a5c2630c5db7471b04e5ccedd8bf1b4b01a776d7749adebcbe4",
      "blockNumber": "0x41485c7",
      "gasUsed": "0xc9fc",
      "effectiveGasPrice": "0x68ffc999e",
      "from": "0xf9c289f1c0341fb336224958a885163f5017bc16",
      "to": "0x11491ac2583fe5a4d8e909fff7ddea8deb5c611e",
      "contractAddress": null
    }
  ],
  "libraries": [],
  "pending": [],
  "returns": {},
  "timestamp": 1740698533,
  "chain": 137,
  "commit": "2022ad1"
}